:1000000000800020B501000031020000152800002A
:100010003502000037020000390200000000000035
:100020000000000000000000000000003B02000093
:100030003D020000000000003F020000A10500009A
:10004000892500009125000099250000A1250000C8
:10005000A9250000B1250000B9250000C125000038
:10006000C9250000D1250000D9250000E1250000A8
:10007000E9250000F1250000F92500000126000017
:100080000926000011260000192600002126000084
:1000900029260000312600003926000041260000F4
:1000A0004926000051260000592600006126000064
:1000B00069260000712600007926000081260000D4
:1000C000892600009126000099260000A126000044
:1000D000A9260000B1260000B9260000C1260000B4
:1000E000C9260000D1260000D9260000E126000024
:1000F000E9260000F1260000F92600000127000093
:1001000009270000112700001927000021270000FF
:10011000292700003127000039270000412700006F
:1001200049270000512700005927000061270000DF
:10013000692700007127000079270000812700004F
:10014000892700009127000099270000A1270000BF
:10015000A9270000B1270000B9270000C12700002F
:10016000C9270000D1270000D9270000E12700009F
:10017000E9270000F1270000685600000000002079
:1001800008000000685600000080FF1F000000000B
:100190006856000000000014000000000800002065
:1001A000780100000080FF1F000000000000001424
:1001B0000000000010B572B601F00EFB0D4B07E019
:1001C00003F10C049A685968186800F019F823467E
:1001D000094A9342F4D306E01C46596854F8080BC8
:1001E00000F01DF82346054A9342F5D362B602F0AB
:1001F000B9FBFEE7780100009C010000B40100009B
:10020000002393420AD210B404680C600433043013
:1002100004319342F8D35DF8044B704770470023D4
:1002200003E000220260043304308B42F9D37047AC
:10023000FEE7FEE7FEE7FEE7FEE7FEE7FEE7FEE796
:10024000FEE7FEE7FFFFFFFFFFFFFFFFFFFFFFFFF0
:10025000FFFFFFFFFFFFFFFFFFFFFFFFFFFFFFFFAE
:10026000FFFFFFFFFFFFFFFFFFFFFFFFFFFFFFFF9E
:10027000FFFFFFFFFFFFFFFFFFFFFFFFFFFFFFFF8E
:10028000FFFFFFFFFFFFFFFFFFFFFFFFFFFFFFFF7E
:10029000FFFFFFFFFFFFFFFFFFFFFFFFFFFFFFFF6E
:1002A000FFFFFFFFFFFFFFFFFFFFFFFFFFFFFFFF5E
:1002B000FFFFFFFFFFFFFFFFFFFFFFFFFFFFFFFF4E
:1002C000FFFFFFFFFFFFFFFFFFFFFFFFFFFFFFFF3E
:1002D000FFFFFFFFFFFFFFFFFFFFFFFFFFFFFFFF2E
:1002E000FFFFFFFFFFFFFFFFFFFFFFFFFFFFFFFF1E
:1002F000FFFFFFFFFFFFFFFFFFFFFFFFFFFFFFFF0E
:10030000FFFFFFFFFFFFFFFFFFFFFFFFFFFFFFFFFD
:10031000FFFFFFFFFFFFFFFFFFFFFFFFFFFFFFFFED
:10032000FFFFFFFFFFFFFFFFFFFFFFFFFFFFFFFFDD
:10033000FFFFFFFFFFFFFFFFFFFFFFFFFFFFFFFFCD
:10034000FFFFFFFFFFFFFFFFFFFFFFFFFFFFFFFFBD
:10035000FFFFFFFFFFFFFFFFFFFFFFFFFFFFFFFFAD
:10036000FFFFFFFFFFFFFFFFFFFFFFFFFFFFFFFF9D
:10037000FFFFFFFFFFFFFFFFFFFFFFFFFFFFFFFF8D
:10038000FFFFFFFFFFFFFFFFFFFFFFFFFFFFFFFF7D
:10039000FFFFFFFFFFFFFFFFFFFFFFFFFFFFFFFF6D
:1003A000FFFFFFFFFFFFFFFFFFFFFFFFFFFFFFFF5D
:1003B000FFFFFFFFFFFFFFFFFFFFFFFFFFFFFFFF4D
:1003C000FFFFFFFFFFFFFFFFFFFFFFFFFFFFFFFF3D
:1003D000FFFFFFFFFFFFFFFFFFFFFFFFFFFFFFFF2D
:1003E000FFFFFFFFFFFFFFFFFFFFFFFFFFFFFFFF1D
:1003F000FFFFFFFFFFFFFFFFFFFFFFFFFFFFFFFF0D
:10040000FFFFFFFFFFFFFFFFFFFFFFFFFE7DFFFF7F
:1004100080B58EB000AFB9607B600346FB731346B6
:10042000BB7343F221537B637B687B61BB68BB6119
:1004300000233B7700237B77FB7BBB770123FB7794
:10044000012387F82030BB7B87F82C30BB7B012B46
:100450001CD107F114033B631C220021234802F046
:1004600089FA224B214A1A61204B1B69204A1360EA
:100470001E4B1B6907F124021146184601F06AFA67
:1004800003467B637B6B002B0FD00BE0BB7B022B07
:1004900001D17B6B26E0BB7B032B01D17B6B21E081
:1004A0007B6B1FE0134801F055FE104B1B6912498E
:1004B000184601F089FA03467B637B6B002B02D060
:1004C0000E4801F047FE094B1B690D49184601F023
:1004D000A7FA03467B637B6B002B02D0094801F02F
:1004E00039FE002318463837BD4680BD080000207D
:1004F00024000020282E00001C000020782E000080
:1005000020000020C82E000080B483B000AF034656
:100510003960FB7197F90730002B0ADB3B68DAB2D0
:100520000C4997F907301201D2B20B4483F800232B
:100530000AE03B68DAB20849FB7903F00F03043B99
:100540001201D2B20B441A7600BF0C37BD465DF8DB
:10055000047B704700E100E000ED00E080B582B070
:1005600000AF78607B68013BB3F1807F01D301234A
:100570000FE00A4A7B68013B53600F214FF0FF30C8
:10058000FFF7C2FF054B00229A60044B07221A6056
:10059000002318460837BD4680BD00BF10E000E0CC
:1005A00080B400AF064B1B68002B04D0044B1B68C3
:1005B000013B034A136000BFBD465DF8047B7047F2
:1005C0002800002080B483B000AF7860064A7B68C2
:1005D000136000BF044B1B68002BFBD100BF0C371E
:1005E000BD465DF8047B70472800002080B58AB0C6
:1005F00000AF012387F82430002387F8253002F06C
:10060000ABF902F07FF902F083F901F0BBFB01F0D6
:100610006DFB01F0A5FA07F124031A460C212F48BF
:1006200000F068FD07F124031A460D212B4800F065
:1006300061FD2B4B1B682B4AA2FB03239B09184629
:10064000FFF78CFF0346002B00D0FEE7002387F85E
:100650002730254A3B1D07CA03C31A704FF41653AF
:100660003B6100233B750023FB7500233B76012390
:100670007B76012387F82130012387F8203007F1AA
:1006800010031A4A19461A4800F042FE4FF47A70D5
:10069000FFF798FF4FF48051104802F0ADF84FF487
:1006A0007A70FFF78FFF4FF400510C4802F0A4F866
:1006B0004FF47A70FFF786FF4FF48051074802F03D
:1006C0009BF84FF40051054802F096F83B1D0822B4
:1006D0001946074800F0E2FFD8E700BF80F00F405E
:1006E00000000020D34D6210182F00000024F400F9
:1006F00000B0064080B586B000AF78607B681B68AC
:10070000FB60FB68002B02DB264801F023FD7B68C1
:10071000254A93420BD07B68244A934207D07B68DA
:10072000234A934203D07B68224A934202D100239A
:10073000FB7501E00123FB75FB681B0E03F007034B
:10074000013B052B26D801A252F823F065070000D3
:10075000710700007D070000950700009507000065
:1007600089070000FB7D184600F042F8386114E06C
:10077000FB7D184600F0EEF838610EE0FB7D184670
:1007800000F0D6F9386108E0FB7D184600F0C8FAA1
:10079000386102E000233B6100BF3B69184618370F
:1007A000BD4680BD40300000E0500640E4500640A9
:1007B000E85006409850064080B500AF094BD3F88A
:1007C000003103F08073002B09D0074B1B68002B0E
:1007D00002D1064801F0BEFC034B1B6800E0002379
:1007E000184680BD004006402C000020F430000078
:1007F00080B584B000AF0346FB71FFF7DDFFB86042
:100800000023FB60BB68002B14D0FB79002B0AD0BF
:10081000012B00D00FE00F4BD3F804311B0A03F07B
:100820000703FB6007E00B4BD3F8043103F0070329
:10083000FB6000E000BFFB68002B05D0FB68013BBC
:10084000BA6822FA03F300E0002318461037BD46C9
:1008500080BD00BF0040064080B584B000AF786026
:100860007B68002B02D1194801F074FC00F032F8CB
:10087000F860FB68002B01D0FB6823E07B681B79E4
:1008800003F007027B685B791B0203F4E063104905
:100890001343C1F804327B689B790D4A03F00103CE
:1008A000C2F808327B681B68094A43F00103C2F8AA
:1008B000003200BF064BD3F8003203F08073002BE8
:1008C000F8D0002318461037BD4680BD2031000007
:1008D0000040064080B483B000AF0F4BD3F8003225
:1008E0007B607B6803F00073002B02D040F6350379
:1008F0000BE07B6803F40003002B01D0022304E02B
:10090000054B0022C3F80022002318460C37BD46D1
:100910005DF8047B704700BF0040064080B400AF24
:100920000A4BD3F8003203F08073002B08D0074B3A
:10093000D3F8083203F00103054A52F8233000E0EF
:1009400000231846BD465DF8047B70470040064012
:100950008C31000080B584B000AF0346FB71FFF717
:10096000DDFFB8600023FB60BB68002B14D0FB796F
:10097000002B0AD0012B00D00FE00F4BD3F804322C
:100980001B0A03F00703FB6007E00B4BD3F80432AC
:1009900003F00703FB6000E000BFFB68002B05D0FD
:1009A000FB68013BBA6822FA03F300E00023184613
:1009B0001037BD4680BD00BF0040064080B584B002
:1009C00000AF78607B68002B02D1374801F0C2FB92
:1009D00000F06EF8F860FB68002B01D0FB685EE069
:1009E0007B681B7903F007027B685B791B0203F4C9
:1009F000E0632E491343C1F804337B689B792B4A8B
:100A000003F00303C2F808337B689B68002B32D0E5
:100A10007B689B68DB781B0203F4E0627B689B6861
:100A20009B7803F0030321491343C1F80C337B681F
:100A30009B681B88B3F5807F0ED17B689B681B7910
:100A40001B0203F47C527B689B685B7903F07F0395
:100A500016491343C1F818337B689B681A88134BF7
:100A6000C3F80023114BD3F8003303F08063002B4D
:100A700001D0012313E00D4BD3F800237B681B68E2
:100A800013430A4A43F00103C2F8003300BF074B87
:100A9000D3F8003303F08073002BF8D000231846FE
:100AA0001037BD4680BD00BF443100000040064005
:100AB00080B483B000AF0F4BD3F800337B607B680A
:100AC00003F00073002B02D040F635030CE07B6886
:100AD00003F40003002B01D0022305E0054B4FF087
:100AE0008062C3F80023002318460C37BD465DF82A
:100AF000047B70470040064080B400AF0A4BD3F837
:100B0000003303F08073002B08D0074BD3F8083371
:100B100003F00303054A52F8233000E0002318468F
:100B2000BD465DF8047B70470040064094310000EC
:100B300080B584B000AF0346FB71FFF7DDFFB860FE
:100B40000023FB60BB68002B14D0FB79002B0AD07C
:100B5000012B00D00FE00F4BD3F804331B0A03F036
:100B60000703FB6007E00B4BD3F8043303F00703E4
:100B7000FB6000E000BFFB68002B05D0FB68013B79
:100B8000BA6822FA03F300E0002318461037BD4686
:100B900080BD00BF0040064080B584B000AF7860E3
:100BA0007B68002B02D1244801F0D4FA00F048F809
:100BB000F860FB68002B01D0FB6839E07B681B7A8A
:100BC00003F007027B685B7A1B0203F4E0631B49B6
:100BD0001343C1F804367B689B7A03F001027B68FB
:100BE000DB7A1B0203F4E0631A437B681B7B1B0464
:100BF00003F4F81311491343C1F808367B681B78D6
:100C000043F00103DAB20D4BC3F8002600BF0B4BD3
:100C1000D3F8003603F08073002BF8D0074BD3F8DD
:100C200000267B685B6805491343C1F80036002342
:100C300018461037BD4680BD6831000000400640B0
:100C400080B483B000AF0F4BD3F800367B607B6875
:100C500003F00073002B02D040F635030CE07B68F4
:100C600003F40003002B01D0022305E0054B4FF0F5
:100C70008062C3F80026002318460C37BD465DF895
:100C8000047B70470040064080B582B000AF00236F
:100C90007B60164BD3F8083603F00103002B03D01A
:100CA000FFF72AFF786002E0FFF786FD78607B6837
:100CB000002B16D00D4BD3F808361B0A03F00703A0
:100CC00001337A68B2FBF3F37B60084BD3F8083644
:100CD0001B0C03F01F0303F110027B6802FB03F3FC
:100CE0007B607B6818460837BD4680BD00400640E3
:100CF00080B582B000AF094BD3F8003603F08073A3
:100D0000002B05D0FFF7C0FF78607B685B0800E030
:100D1000002318460837BD4680BD00BF004006408E
:100D200080B584B000AF0346FB71FFF7E1FFB86008
:100D30000023FB60BB68002B14D0FB79002B0AD08A
:100D4000012B00D00FE00F4BD3F804361B0A03F041
:100D50000703FB6007E00B4BD3F8043603F00703EF
:100D6000FB6000E000BFFB68002B05D0FB68013B87
:100D7000BA6822FA03F300E0002318461037BD4694
:100D800080BD00BF0040064090B589B000AF7860DC
:100D90007B68002B02D1504801F0DCF97B689B682E
:100DA0007A68127CDA777B68DB68002B0CD17B6871
:100DB0001B68002B08D07B681C687B68596800237F
:100DC00001227868A04783E07B689A687B681B7C77
:100DD0005B01134403F5805318331B687B617B6808
:100DE0009A687B681B7C5B01134403F580531C33BA
:100DF0001B889BB203F08003002B14BF0123002348
:100E0000FB747B68DB681A467B699B1A7B617B6994
:100E10005B09FB60FB7C002B02D0FB68FB760EE0DD
:100E2000FB68002B04D0FB68DBB2013BDBB205E0C2
:100E30007B681B7D5BB2DBB2013BDBB2FB76FB7EEA
:100E40007A68527C52B293420FD17B68DB7C5AB2F3
:100E50007B681B7D5BB29A4204D17B68DB7C5BB212
:100E6000FB6112E00023FB610FE0FB7E7A68527C9D
:100E700052B29B1AFB61FB69002B06DA7B681B7D73
:100E80005BB21A46FB691344FB6197F91B207B6830
:100E90005A747B68DB7C5BB2DAB2FB69DBB2D31AD3
:100EA000DBB25AB27B68DA747B681B68002B07D010
:100EB0007B681C687B685968FB69FA7C7868A04786
:100EC000FB7C002B04D07B689B687A68127C1A77C5
:100ED00000BF2437BD4690BD083E000080B500AF7E
:100EE000044B1B681846FFF74FFFBFF34F8F00BF3F
:100EF00080BD00BF3000002080B500AF044B5B68B0
:100F00001846FFF741FFBFF34F8F00BF80BD00BF02
:100F10003000002080B500AF044B9B681846FFF7F7
:100F200033FFBFF34F8F00BF80BD00BF30000020F4
:100F300080B500AF044BDB681846FFF725FFBFF311
:100F40004F8F00BF80BD00BF3000002080B500AFD4
:100F5000044B1B691846FFF717FFBFF34F8F00BF05
:100F600080BD00BF3000002080B500AF044B5B693E
:100F70001846FFF709FFBFF34F8F00BF80BD00BFCA
:100F80003000002080B500AF044B9B691846FFF786
:100F9000FBFEBFF34F8F00BF80BD00BF30000020BD
:100FA00080B500AF044BDB691846FFF7EDFEBFF3D9
:100FB0004F8F00BF80BD00BF3000002080B500AF64
:100FC000044B1B6A1846FFF7DFFEBFF34F8F00BFCD
:100FD00080BD00BF3000002080B500AF044B5B6ACD
:100FE0001846FFF7D1FEBFF34F8F00BF80BD00BF93
:100FF0003000002080B500AF044B9B6A1846FFF715
:10100000C3FEBFF34F8F00BF80BD00BF3000002084
:1010100080B500AF044BDB6A1846FFF7B5FEBFF39F
:101020004F8F00BF80BD00BF3000002080B500AFF3
:10103000044B1B6B1846FFF7A7FEBFF34F8F00BF93
:1010400080BD00BF3000002080B500AF044B5B6B5B
:101050001846FFF799FEBFF34F8F00BF80BD00BF5A
:101060003000002080B500AF044B9B6B1846FFF7A3
:101070008BFEBFF34F8F00BF80BD00BF300000204C
:1010800080B500AF044BDB6B1846FFF77DFEBFF366
:101090004F8F00BF80BD00BF3000002080B582B000
:1010A00000AF0023FB7116E0FB790F4A52F82330A2
:1010B000002B0DD0FB790D4A52F82330FA790C49F8
:1010C00051F82200FA79084951F822201146984730
:1010D000FB790133FB71FB79012BE5D9BFF34F8F0E
:1010E00000BF0837BD4680BD700000208000002092
:1010F0007800002080B584B000AFF860B9607A60F5
:101100007B68002B02D1134801F024F87B681B7820
:10111000002B0AD1FB685A690121BB6801FA03F36D
:10112000DB431A40FB685A610FE07B685B781A4624
:10113000B968F86801F08AFBFB685A690121BB684D
:1011400001FA03F31A43FB685A6100BF1037BD462A
:1011500080BD00BF743E000080B582B000AF7860F3
:1011600039607B681B6903F00103002B0CD0134B23
:101170001B68002B08D0114B1B6811493A6851F8C5
:1011800022201146786898477B68D3F8103103F025
:101190000103002B0CD00B4B1B68002B08D0094B14
:1011A0001B6809493A6851F8222011467868984727
:1011B000BFF34F8F00BF0837BD4680BD88000020B9
:1011C0008C000020940000209800002080B500AF23
:1011D00000210248FFF7C0FF00BF80BD006006404D
:1011E00080B500AF01210248FFF7B6FF00BF80BD08
:1011F0000070064080B582B000AF786039607868D2
:1012000001F03FFB0346002B05D0084B1B683968F3
:101210007868984704E0064B1B68396878689847F7
:10122000BFF34F8F00BF0837BD4680BDA800002028
:10123000AC00002080B500AF074B1B68002B02D12B
:10124000064800F087FF044B1B6819460448FFF767
:10125000D1FF00BF80BD00BFA0000020E043000020
:1012600000C0024080B500AF074B5B68002B02D185
:10127000064800F06FFF044B5B6819460448FFF70F
:10128000B9FF00BF80BD00BFA000002010440000D7
:1012900000D0024080B582B000AF78607B681B68E8
:1012A000002B02DB064800F055FF7B681A687B685C
:1012B00042F080421A6000BF0837BD4680BD00BFC3
:1012C0004044000080B584B000AF78600023FB602C
:1012D00009E00D4AFB6852F823307A689A4206D03A
:1012E000FB680133FB60FB68022BF2D900E000BF12
:1012F000FB68022B02D9054800F02CFFFB6818465A
:101300001037BD4680BD00BF804A0000E0440000A9
:1013100080B58CB000AFF860B9607A60BB68002B14
:1013200002D1704800F016FFBB681B68002B02D189
:101330006D4800F00FFFBB681B7A042B02D96B4885
:1013400000F008FFBB685B7A042B02D9684800F004
:1013500001FFBB681B68BB6100237B6200237B85A8
:1013600004233B6246E0BB681B683A6A02FB03F356
:101370007A68B2FBF3F33B853B8D002B01D101234F
:101380003B853B8D3A6A02FB03F37A68B2FBF3F3C9
:101390003B61BB681B683A69D31AFB61BB681A687A
:1013A0003B8D013319463B6A03FB01F37968B1FBBE
:1013B000F3F3D31AFA699A420FD9BB681A683B8DC6
:1013C000013319463B6A03FB01F37968B1FBF3F380
:1013D000D31AFB613B8D01333B85FA69BB699A42A5
:1013E00005D8FB69BB613B6A7B623B8D7B853B6AB1
:1013F00001333B623B6A202BB5D9BB681B683D4A71
:10140000A2FB03235A0913465B001344BA699A42AC
:1014100002D940F22153F6E0F868FFF753FF7861F4
:10142000354A7B6952F823301846FFF733FFF868D6
:1014300001F03AFAFB681B69FB627B6A032B06D951
:101440007B6A072B03D8FB6A43F40033FB62FB6A19
:1014500023F0F853FB627B6A013B1B0603F0F85351
:10146000FA6A1343FB62FB6A23F4FF5323F01F0362
:10147000FB627B8DC3F30C02FB6A1A43FB681A61A3
:10148000FB681B6923F00052FB681A61FB689B69CB
:1014900023F4E26323F00703FB62BB681B791A465F
:1014A000BB68DB7B1B0203F4E0631A43BB689B7BD6
:1014B0009B0003F004031343FA6A1343FB62BB6807
:1014C0005B79012B1AD1BB681B79002B04D0FB6A16
:1014D00023F40063FB6219E0FB6A43F40063FB62E0
:1014E00014E000BFBC450000E445000018460000C1
:1014F000784600001F85EB518C4A0000BB681B79C1
:10150000002B03D0FB6A43F01003FB62FB68FA6A0E
:101510009A61FB681B6923F40053FB62BB68DB79AB
:101520005B0303F40052FB6A1A43FB681A61BB6851
:101530005B7A1B04BA68127A1A43FB68DA62FB68AA
:101540009B6A43F08802FB689A62FB689B6A43F4DB
:101550004042FB689A622E4BFB62FB6A43F00043F9
:10156000FB62FB6A43F44043FB62FB685A6ABB6858
:101570005B7B1B0103F01001BB681B7B5B0103F06D
:1015800020030B431A43FB685A62BB689B7A002B0B
:1015900005D0FB685B6A43F00802FB685A62BB68CF
:1015A000DB7A002B05D0FB685B6A43F00102FB6825
:1015B0005A62BB689B79002B04D0FB6A43F000534E
:1015C000FB6203E0FB6A23F00053FB62FB685A698D
:1015D000FB6A1A43FB685A61FB689B69FB62BB6844
:1015E0001B7C002B03D0FB6A43F40023FB62BB6827
:1015F0005B7C002B03D0FB6A43F48023FB62FB6817
:10160000FA6A9A61002318463037BD4680BD00BF94
:1016100000001F4080B582B000AF78607B68002B6F
:1016200002D11D4800F096FD14220021786801F0D7
:10163000A1F97B684FF4E1321A607B6800221A71CD
:101640007B6800225A717B6800229A717B680022B5
:10165000DA717B6800221A727B6800225A727B68FA
:1016600000229A727B680022DA727B6800225A7329
:101670007B6800221A737B6800229A737B680022C1
:10168000DA737B6800221A747B6800225A7400BFE8
:101690000837BD4680BD00BFD846000080B584B085
:1016A00000AFF860B9607A60BB68002B10D10D48BC
:1016B00000F050FD00BFFB685B6903F40003002BE2
:1016C000F9D0BB685A1CBA601B781A46FB68DA610D
:1016D0007B685A1E7A60002BECD100BF1037BD46E4
:1016E00080BD00BF2C47000080B500AF054B1B68D4
:1016F000054A1268114605489847BFF34F8F00BF4F
:1017000080BD00BFBC000020B000002000A006404B
:1017100080B500AF054B1B68054A126811460548A5
:101720009847BFF34F8F00BF80BD00BFBC000020B3
:10173000B000002000A0064080B500AF054B1B683C
:10174000054A5268114605489847BFF34F8F00BFBE
:1017500080BD00BFBC000020B000002000B00640EB
:1017600080B500AF054B1B68054A52681146054815
:101770009847BFF34F8F00BF80BD00BFBC00002063
:10178000B000002000B0064080B500AF054B1B68DC
:10179000054A9268114605489847BFF34F8F00BF2E
:1017A00080BD00BFBC000020B000002000C006408B
:1017B00080B500AF054B1B68054A92681146054885
:1017C0009847BFF34F8F00BF80BD00BFBC00002013
:1017D000B000002000C0064080B500AF194BD3F820
:1017E0008830184A43F47003C2F88830164B174A01
:1017F0005A60154B4FF6FF729A60134B1B6823F02B
:10180000A003114A43F020031360114B1B68104AD8
:1018100043F0A06313600E4B1B680D4A43F0004376
:10182000136000BF0A4B1B68002BFBDB084B1B68D7
:10183000074A43F003031360BFF36F8F01F04AF8C8
:1018400000BF80BD00ED00E00020054020C528D984
:10185000002008E080B58AB000AF786039607B680E
:10186000002B02D1364800F075FC3B68002B02D1FA
:10187000344800F06FFC3B681B7B022B02D93248D6
:1018800000F068FC3B681B7B1A46304B53F8223053
:10189000002B02D12E4800F05DFC07F10C03184626
:1018A000FFF7B8FE3B685B68FB603B681B7A012B67
:1018B00002D102233B7408E03B681B7A022B02D161
:1018C00003233B7401E000233B743B685B7A012BEC
:1018D00002D10123FB7401E00023FB743B689B7A77
:1018E000002B14BF01230023DBB27B773B68DB7A3C
:1018F000002B14BF01230023DBB23B773B681B7B2B
:101900001A46124B53F822003B681A6807F10C0381
:101910001946FFF7FDFC78627B6A002B04D0786AD9
:1019200000F0DFFF034606E07B683B623B681A7B02
:101930003B6A1A70002318462837BD4680BD00BF99
:10194000A44A0000D44A0000044B0000984A00005A
:10195000784B000080B584B000AF7860396043F206
:101960002153FB813B68002B02D1154800F0F2FBAC
:101970007B68002B02D1134800F0ECFB7B68BB6056
:1019800010220021B86800F0F5FF3B681A7ABB68A6
:101990001A733B681B7A012B00D00BE0BB6803F184
:1019A00008023B68DB681946104600F069F80346F8
:1019B000FB8100BFFB8918461037BD4680BD00BFC4
:1019C000004F00003C4F000080B584B000AF78604D
:1019D00039607B68002B02D10F4800F0BBFB3B68ED
:1019E000002B02D10D4800F0B5FB7B68FB603B6823
:1019F000BB6004220021386800F0BCFFFB685B6814
:101A00005A1CFB685A60BB68FA681A6000231846C3
:101A10001037BD4680BD00BFBC4F0000FC4F00002A
:101A200080B584B000AF786039607B68002B02D14C
:101A3000114800F08FFB3B68002B02D10F4800F0EB
:101A400089FB7B68FB603B68BB60FB681B68002B05
:101A500002D043F222530BE004220021386800F048
:101A600089FFFB68BA681A60BB68FA681A600023CD
:101A700018461037BD4680BDB8500000F850000031
:101A800080B588B000AF786039603B68002B02D128
:101A9000194800F05FFB7B68002B02D1174800F06B
:101AA00059FB3B68FB617B68BB61FB695B68FB6062
:101AB000FB691B7A3B74FB695B7A7B74FB69DB7A9D
:101AC000BB74FB691B7BFB74FB691B68BB60FB6918
:101AD0009B7A3B75BB6907F1080211461846FFF770
:101AE000B9FE0346002B02D043F2215300E000234D
:101AF00018462037BD4680BD3C5200008052000091
:101B000080B584B000AF78600B46FB707B681B68C3
:101B1000FB60FB68002B02DB0F4800F01BFBFB683F
:101B200003F00053002B02D00C4800F013FBFB68BD
:101B300023F0E062FB781B0603F0E0631343FB60D5
:101B40007B68FA6822F080421A607B68FA681A6043
:101B500000BF1037BD4680BD80540000B85400005F
:101B600080B582B000AF06210848FFF7C9FF0748DB
:101B7000FEF7C0FD78607B6801224FF4E131002060
:101B8000FEF746FC00BF0837BD4680BDAC5106409D
:101B900080B584B000AF78600B46FB707B681B6833
:101BA000FB60FB68002B02DB0F4800F0D3FAFB68F8
:101BB00003F00053002B02D00C4800F0CBFAFB6876
:101BC00023F0E062FB781B0603F0E0631343FB6045
:101BD0007B68FA6822F080421A607B68FA681A60B3
:101BE00000BF1037BD4680BDF45400002C550000E6
:101BF00080B582B000AF78607B68002B02D10548C9
:101C000000F0A8FA044A7B681B68536100BF0837DC
:101C1000BD4680BD685500000040064080B582B0DA
:101C200000AF78607B68002B02D1054800F092FA83
:101C3000044B1A697B681A6000BF0837BD4680BD37
:101C40008C5500000040064080B586B000AF78603B
:101C5000254A07F10C0392E8030083E80300002300
:101C6000BB603B7A032262F303033B72FB7A0222DE
:101C700062F30303FB7207F10C031846FEF7ECFD59
:101C800007F108031846FFF7B3FF07F114031846DE
:101C9000FFF7C4FFFB7DC3F30303DAB2FB7AC3F3A0
:101CA0000303DBB29A42F0D17868FEF787FEFB7A35
:101CB000032262F30303FB7207F108031846FFF7E0
:101CC00097FF07F114031846FFF7A8FFFB7DC3F346
:101CD0000303DAB2FB7AC3F30303DBB29A42F0D117
:101CE00000BF1837BD4680BDB055000080B582B03A
:101CF00000AF1148FFF7A8FF1048FEF7ADFD1048F0
:101D0000FEF74AFF0F48FFF773FF3B1D1846FFF72A
:101D100085FFFB79C3F30303DBB203229342F4D1C3
:101D2000094B0A4A1A6006210948FFF731FF00BF34
:101D30000837BD4680BD00BFC4550000BC5500003B
:101D4000D0550000B855000000000020006CDC02F7
:101D5000AC51064080B582B000AF78607B681B68EC
:101D6000002B02DB064800F0F5F97B681A687B68F7
:101D700042F080421A6000BF0837BD4680BD00BFF8
:101D8000E055000080B500AFD348FFF7E3FFD3482C
:101D9000FFF7E0FFD248FFF7DDFFD248FFF7DAFF99
:101DA000D148FFF7D7FF00220021D04800F0B7FD4F
:101DB00000220121CD4800F0B2FD07220A21CB48C4
:101DC00000F0ADFD01220B21C84800F0A8FD012262
:101DD0000C21C64800F0A3FD01220D21C34800F0EC
:101DE0009EFD01220E21C14800F099FD03220F2122
:101DF000BE4800F094FD01221021BC4800F08FFD88
:101E000002221121B94800F08AFD06220221B748BA
:101E100000F085FD06220321B44800F080FD072272
:101E20000421B24800F07BFD07220521AF4800F0F5
:101E300076FD06220621AD4800F071FD062207213D
:101E4000AA4800F06CFD04220821A84800F067FDB4
:101E500004220921A54800F062FD03220021A448C4
:101E600000F05DFD01220121A14800F058FD002293
:101E70000A219F4800F053FD00220B219C4800F0EE
:101E80004EFD02220C219A4800F049FD02220D214C
:101E9000974800F044FD02220E21954800F03FFDD6
:101EA00002220F21924800F03AFD022210219048B0
:101EB00000F035FD022211218D4800F030FD042292
:101EC00002218B4800F02BFD04220321884800F0FA
:101ED00026FD00220421864800F021FD072205216D
:101EE000834800F01CFD02220621814800F017FD06
:101EF000022207217E4800F012FD002208217C48C2
:101F000000F00DFD00220921794800F008FD0622AD
:101F10000021784800F003FD06220121754800F0F9
:101F2000FEFC01220A21734800F0F9FC01220B217A
:101F3000704800F0F4FC01220C216E4800F0EFFC28
:101F400001220D216B4800F0EAFC02220E216948B3
:101F500000F0E5FC02220F21664800F0E0FC0022C0
:101F60001021644800F0DBFC00221121614800F0E0
:101F7000D6FC002202215F4800F0D1FC00220321A0
:101F80005C4800F0CCFC072204215A4800F0C7FC52
:101F900007220521574800F0C2FC012206215548BE
:101FA00000F0BDFC01220721524800F0B8FC0222DB
:101FB0000821504800F0B3FC022209214D4800F0EE
:101FC000AEFC062200214C4800F0A9FC06220121AB
:101FD000494800F0A4FC01220A21474800F09FFC78
:101FE00006220B21444800F09AFC06220C214248AC
:101FF00000F095FC02220D213F4800F090FC0222E7
:102000000E213D4800F08BFC00220F213A4800F0E1
:1020100086FC00221021384800F081FC03221121A7
:10202000354800F07CFC00220221334800F077FCA8
:1020300000220321304800F072FC002204212E48C7
:1020400000F06DFC012205212B4800F068FC012204
:102050000621294800F063FC01220721264800F0F0
:102060005EFC02220821244800F059FC02220921CA
:10207000214800F054FC02220021204800F04FFCCF
:10208000022201211D4800F04AFC06220A211B48B9
:1020900000F045FC06220B21184800F040FC03220A
:1020A0000C21164800F03BFC01220D21134800F0E2
:1020B00036FC00220E21114800F031FC06220F21CF
:1020C0000E4800F02CFC062210210C4800F027FCE2
:1020D0000222022114E000BF24510640285106408C
:1020E0002C510640305106403451064000900440C7
:1020F00000A0044000B0044000C0044000D00440F0
:10210000134800F00CFC07220321114800F007FCE3
:10211000032204210E4800F002FC032205210C4892
:1021200000F0FDFB01220621094800F0F8FB022225
:102130000721074800F0F3FB00220821044800F0C3
:10214000EEFB00220921024800F0E9FB00BF80BD40
:1021500000D0044010B50F4904460F4800F00DFDB3
:102160000C49204600F009FD0C49D1F88030013BB4
:10217000002BC1F8803008DB8B6F5A1C8A670A225B
:102180001A70BDE8104000F0F4BB78310A2000F06E
:1021900013FCF6E73801002034560000C000002090
:1021A0002DE9F041D5685769EB0280460E4614468A
:1021B00005D5384600F0C2FD45F01005A061124B70
:1021C0002B408BB1A169384600F0C1FD002806DA2A
:1021D000E36843F08003E3604FF0FF3011E025F443
:1021E000003525F01005E56032464146384600F0DE
:1021F000B4FD20F00043F61AA3691E44A66100282E
:10220000E6D1BDE8F08100BF10000200F8B5304F04
:102210003C68002851D10020F8BD2368B3F1805FED
:1022200039D1D4E9013151B10A68B2F1805F06D1E8
:10223000DA1C4B681A448B686260A360F1E7AB421A
:1022400007DB9E4505DB20464FF0005340F80C3B72
:10225000E2E7634511D920464FF00052656040F82F
:102260000C2B5B1B00EB8502A260033B4FF08054FC
:1022700040F82540C2E90131CEE761B9A0EB830007
:1022800000F036F90130C6D04FF00053C4E90035F4
:1022900004F10C00C0E72646A468002CBDD10C3028
:1022A00000F026F9431CB6D04FF00053C0E90035CA
:1022B000846056B938600C30AEE7C31C9D08002618
:1022C00005F10A0C05F1030EE7E7B060F3E700BF84
:1022D0007801002010B5FFF799FF044628B91722AE
:1022E000034900F03AFD00F044FB204610BD00BF5A
:1022F000495600002DE9F843C6683D4B334004467B
:102300000D4690460BB9022747E0D0F81490484696
:1023100000F017FD07460028F5D1B8F1010F2CD0C9
:10232000B8F1020F2ED0B8F1000FECD1002DEADB8E
:10233000B00404D52368E26A9A4238BFE362A16917
:10234000A9420EDC2368E26A934238BF1346226931
:102350005818801AA84204DB206B01EB000CAC4536
:1023600036DC0023C4E9013346F02006A56226F4DA
:10237000032626F04006E6600FE0204600F03AF81B
:102380000544D3E7484600F0D9FCB0F1000CE26800
:1023900006DA42F08002E26001273846BDE8F883A1
:1023A000E36A1846A3691946236883422CBFC918FB
:1023B00009180B4621699206A3EB010303D5A26A13
:1023C0009342B8BF13466345ACBFED186544ADE713
:1023D0006D1AB10744BF281AA060F10744BF9B1AC9
:1023E000EB1A154448BF6360256026F02006BEE75F
:1023F00003001000C3689A0705D10E4B21221A6012
:102400004FF0FF30704703F020021B0309D512B1D3
:10241000806A013870470368826900691344181A9A
:10242000F7E70AB1806A704703688269006913445C
:10243000181A70477C01002010B5174A1749002070
:1024400000F0D6FB4FF480734FF4806200211248F5
:1024500000F02EF8124A1349012000F0C9FB4FF496
:1024600080734FF4806200210D4800F021F80E4B7C
:102470001B68022B0EDD0D4A0A49022000F0B8FB52
:102480004FF480734FF4806200210848BDE810408B
:1024900000F00EB810BD00BFC00000206156000063
:1024A000FC00002063560000305600003801002078
:1024B00070B5C468A5070CD0B2F5007F05D0B2F5A1
:1024C000806F08D0B2F5807F03D1084D5E1EAE420A
:1024D00004D9012008E000F1240101231443016123
:1024E0000160C361C460002070BD00BFFEFFFF003B
:1024F00070B50B4D2B680BB90A4B2B60C41C2E68B2
:1025000024F003043444204600F032F810B92C6063
:10251000304670BD044B0C221A604FF0FF36F7E7CF
:1025200074010020800100207C010020F7B50446E2
:1025300098B103B0BDE8F04000F0C4BB07FB0460F5
:1025400000F0C0FB002818BF4FF0FF350134019B9D
:10255000A342F3DC284603B0F0BD034B034E1B68D7
:10256000019305463C27F2E730560000C0000020EA
:10257000044B23B1984234BF002001207047184615
:10258000704700BF8009002008B5FEF7A7FC08BD12
:1025900008B5FEF7B1FC08BD08B5FEF7BBFC08BDE9
:1025A00008B5FEF7C5FC08BD08B5FEF7CFFC08BDB1
:1025B00008B5FEF7D9FC08BD08B5FEF7E3FC08BD79
:1025C00008B5FEF7EDFC08BD08B5FEF7F7FC08BD41
:1025D00008B5FEF701FD08BD08B5FEF70BFD08BD07
:1025E00008B5FEF715FD08BD08B5FEF71FFD08BDCF
:1025F00008B5FEF729FD08BD08B5FEF733FD08BD97
:1026000008B5FEF73DFD08BD08B5FDF71AFE08BD8B
:1026100008B5FDF716FE08BD08B5FDF712FE08BDAA
:1026200008B5FDF70EFE08BD08B5FDF70AFE08BDAA
:1026300008B5FDF706FE08BD08B5FDF702FE08BDAA
:1026400008B5FDF7FEFD08BD08B5FEF7BFFD08BDE6
:1026500008B5FEF7C5FD08BD08B5FEF7EBFD08BDE2
:1026600008B5FEF7FFFD08BD08B5FDF7EAFD08BD9A
:1026700008B5FDF7E6FD08BD08B5FDF7E2FD08BDAC
:1026800008B5FFF731F808BD08B5FFF741F808BDF8
:1026900008B5FFF751F808BD08B5FFF761F808BDA8
:1026A00008B5FFF771F808BD08B5FFF781F808BD58
:1026B00008B5FDF7C6FD08BD08B5FDF7C2FD08BDAC
:1026C00008B5FDF7BEFD08BD08B5FDF7BAFD08BDAC
:1026D00008B5FDF7B6FD08BD08B5FDF7B2FD08BDAC
:1026E00008B5FDF7AEFD08BD08B5FDF7AAFD08BDAC
:1026F00008B5FDF7A6FD08BD08B5FDF7A2FD08BDAC
:1027000008B5FDF79EFD08BD08B5FDF79AFD08BDAB
:1027100008B5FDF796FD08BD08B5FDF792FD08BDAB
:1027200008B5FDF78EFD08BD08B5FDF78AFD08BDAB
:1027300008B5FDF786FD08BD08B5FDF782FD08BDAB
:1027400008B5FDF77EFD08BD08B5FDF77AFD08BDAB
:1027500008B5FDF776FD08BD08B5FDF772FD08BDAB
:1027600008B5FDF76EFD08BD08B5FDF76AFD08BDAB
:1027700008B5FDF766FD08BD08B5FDF762FD08BDAB
:1027800008B5FDF75EFD08BD08B5FDF75AFD08BDAB
:1027900008B5FDF756FD08BD08B5FDF752FD08BDAB
:1027A00008B5FDF74EFD08BD08B5FDF74AFD08BDAB
:1027B00008B500F045F808BD08B5FDF742FD08BDB5
:1027C00008B5FDF73EFD08BD08B5FDF73AFD08BDAB
:1027D00008B5FDF736FD08BD08B5FDF732FD08BDAB
:1027E00008B5FDF72EFD08BD08B5FDF72AFD08BDAB
:1027F00008B5FDF726FD08BD80B483B000AF786052
:1028000039607B683A68DA6000BF0C37BD465DF816
:10281000047B704704207146084202D0EFF3098020
:1028200001E0EFF3088081690A884BF6AB639A42B6
:1028300000D0FEE70231816120210160704700BFB6
:1028400080B500AFFEF72AFC00BF80BD80B485B024
:1028500000AFF860B9601346FB71FB79002B05D11E
:102860000122BB689A40FB689A6004E00122BB68C1
:102870009A40FB685A6000BF1437BD465DF8047B80
:10288000704780B483B000AF78607B685B6A03F008
:102890000103002B14BF01230023DBB218460C37C1
:1028A000BD465DF8047B704780B483B000AF7860AC
:1028B0007B689B6843F002027B689A607B689B6838
:1028C00023F002027B689A6000BF0C37BD465DF8BA
:1028D000047B704780B400AF00BFBD465DF8047B49
:1028E000704780B483B000AF78607B68002B01D163
:1028F000002301E042F6AF7318460C37BD465DF881
:10290000047B704780B500AFFFF7F0F900BF80BDD2
:1029100080B400AF00BFBD465DF8047B704780B453
:1029200085B000AFF860B9601346FB71FB68BA6808
:1029300053F8223023F4E062FB791B0203F4E063D6
:1029400042EA0301FB68BA6843F8221000BF14375B
:10295000BD465DF8047B704780B500AFFFF712FA03
:1029600000BF80BD08B5FFF767FDBDE80840FDF773
:102970003DBEFEE700F0C6B9C368826923F02003BC
:1029800010B5C360836A9A4204460ED000F0B4F8D2
:10299000E36823F4405323F0100343F01003E36093
:1029A000A36AA3612369E3622360E36823F480439D
:1029B00023F04003E36010BDCB6823F4002270B520
:1029C0000C46CA609906054602D52046FFF7D4FF9B
:1029D000D4E902365A1C10DAB0050ED4C3F1FF2335
:1029E00003F57F03FE33A360236846F490365A1C38
:1029F000E66022601D70E8B270BD41F28A0232408A
:102A0000022A07D0002346F08006A360E6604FF05C
:102A1000FF30F1E74AF210033340B3F5004F0AD11B
:102A200000212046FFF766FCE368990602D52046A0
:102A3000FFF7A2FFE66846F4903316F4706FE36088
:102A40000ED1606900F07DF900B372051ED504F166
:102A50002403236123600123E36146F49233E3609E
:102A600013F4106F2168266926D0E36A99422CBFBF
:102A7000C6EB0101C6EB0301B9B9731CE362236025
:102A8000E36923635A1EA2603570B4E74FF4807087
:102A9000FFF720FC4FF48073E268E36146F494335F
:102AA0001A4320612060E260DAE722463046FFF7F1
:102AB00077FB0028E1D0AAE74A1CEDB222600D7036
:102AC000E26A216891422CBFC6EB0101C6EB02010C
:102AD000E26922635B0503D40A2D01D08A4209DC36
:102AE0000023E6622660A36022463046FFF758FBCB
:102AF00000288CD128467FE738B501680569C36A8C
:102B00000446C06820F40022E26000F08202022A3B
:102B100002D04FF0FF3038BD10F48030FBD0994226
:102B200038BF19468D4208D1E368E562002023F4DE
:102B300080332560A060E360EDE72246491B28460C
:102B4000FFF72EFB0028EFD0E3E7A8B14FF080534A
:102B500040F80C3C50F8042C72B11368B3F1805F5C
:102B60000AD150F8083C516803330B4440F8083C44
:102B7000936840F8043CEDE7704738B505460C46CD
:102B800015F8010B70B1A368013B002BA36004DBB7
:102B900023685A1C22601870F2E72146FFF70CFFE9
:102BA000431CEDD138BD10B5421C830716D1034636
:102BB00050F8041BA1F1013424EA010414F0803F11
:102BC000F5D011F0FF0F11D011F47F4F0CD011F49C
:102BD0007F0F14BF03460333981A04E010F8013B3B
:102BE000002BE2D1801A10BD0233F5E70133F3E781
:102BF00070B50D4606461046144600F02DF82B78A9
:102C0000722B1AD0772B05D0612B23D1082348F2E1
:102C1000020201E00423022215F8011F2B290FD024
:102C2000622912D01B07E260666104D502220021EE
:102C30002046FFF75FFB204670BD00230122EBE733
:102C400042F0030243F00203E6E742F0040243F0DD
:102C50000103E1E70024EEE7F0B5C468A10789B0FD
:102C6000054622D0220718D4D0E90467FFF75EFC9E
:102C7000384600F060F8230502D53046FFF765FFBF
:102C8000A40DA40514F1A54F07D12022296A684696
:102C900000F060F8684600F00BF83C22002128465E
:102CA000FFF768FE002009B0F0BD4FF0FF30FAE7F3
:102CB00010B50446FFF777FF01462046BDE81040F7
:102CC00000F042B8C36870B513F00306044611D093
:102CD0009B0611D5856AFFF74FFEE36823F4405346
:102CE000E3602046FFF708FF0022064629462046FB
:102CF000FFF700FB304670BD836905681D4403691A
:102D0000ED1AEAE7034613F0030F0ED101F0FF01BD
:102D100041EA012141EA0141043A24BF43F8041B7E
:102D2000B2F10402F9D202F10402013A24BF03F81D
:102D3000011BFAE770474FF0FF3070474FF0FF304C
:102D400070474FF0FF3070474FF0FF3070474FF043
:102D5000FF3070474FF0FF30704710467047FFFF5D
:102D60002E2E2F7574696C69746965732F66736C88
:102D70005F64656275675F636F6E736F6C652E630A
:102D80003A333635203A204E554C4C20213D2063B5
:102D9000680000002E2E2F7574696C697469657364
:102DA0002F66736C5F64656275675F636F6E736FC8
:102DB0006C652E633A333636203A203020213D2090
:102DC00073697A65000000002E2E2F7574696C6996
:102DD000746965732F66736C5F64656275675F63A2
:102DE0006F6E736F6C652E633A343239203A20620D
:102DF000756620213D204E554C4C00002E2E2F751F
:102E000074696C69746965732F66736C5F6465625D
:102E100075675F636F6E736F6C652E633A3438311C
:102E2000203A2063680000002E2E2F7574696C69AB
:102E3000746965732F66736C5F64656275675F6341
:102E40006F6E736F6C652E633A353936203A206B9E
:102E50005374617475735F53657269616C4D616E13
:102E6000616765725F53756363657373203D3D20D1
:102E700073746174757300002E2E2F7574696C69FC
:102E8000746965732F66736C5F64656275675F63F1
:102E90006F6E736F6C652E633A363038203A206B54
:102EA0005374617475735F53657269616C4D616EC3
:102EB000616765725F53756363657373203D3D2081
:102EC00073746174757300002E2E2F7574696C69AC
:102ED000746965732F66736C5F64656275675F63A1
:102EE0006F6E736F6C652E633A363139203A206B02
:102EF0005374617475735F53657269616C4D616E73
:102F0000616765725F53756363657373203D3D2030
:102F100073746174757300FF48656C6C6F200D0AE3
:102F200000FFFFFF2E2E2F647269766572732F6685
:102F3000736C5F636C6F636B2E683A363337203A7D
:102F400020282A28766F6C6174696C652075696E1B
:102F50007433325F74202A296E616D652920262022
:102F60005043435F434C4B4346475F50525F4D4194
:102F7000534B00002E2E2F647269766572732F6694
:102F8000736C5F636C6F636B2E683A363439203A2A
:102F900020282A28766F6C6174696C652075696ECB
:102FA0007433325F74202A296E616D6529202620D2
:102FB0005043435F434C4B4346475F50525F4D4144
:102FC000534B00002E2E2F647269766572732F6644
:102FD000736C5F636C6F636B2E683A383139203ADB
:102FE00020636F6E666967002E2E2F6472697665A6
:102FF00072732F66736C5F636C6F636B2E633A3111
:103000003038203A20675F7874616C3046726571A1
:10301000000000002E2E2F647269766572732F6691
:10302000736C5F636C6F636B2E633A313234203A9A
:1030300020675F7874616C333246726571000000FE
:103040002E2E2F647269766572732F66736C5F63C0
:103050006C6F636B2E633A323536203A20726567A7
:103060002026205043435F434C4B4346475F50521A
:103070005F4D41534B0000002E2E2F647269766520
:1030800072732F66736C5F636C6F636B2E633A327F
:103090003939203A204F53433332203D3D2062617D
:1030A000736500002E2E2F647269766572732F6629
:1030B000736C5F636C6F636B2E633A333233203A09
:1030C000204F53433332203D3D2062617365000041
:1030D0002E2E2F647269766572732F66736C5F6330
:1030E0006C6F636B2E633A333938203A20636F6E0E
:1030F000666967002E2E2F647269766572732F667B
:10310000736C5F636C6F636B2E633A343938203AAB
:1031100020675F7874616C30467265710000000052
:103120002E2E2F647269766572732F66736C5F63DF
:103130006C6F636B2E633A353539203A20636F6EBE
:10314000666967002E2E2F647269766572732F662A
:10315000736C5F636C6F636B2E633A363931203A60
:1031600020636F6E666967002E2E2F647269766524
:1031700072732F66736C5F636C6F636B2E633A3987
:103180003835203A20636F6E6669670080841E00C0
:1031900000127A00006CDC0200751903007E5603F1
:1031A000008793032E2E2F647269766572732F66E3
:1031B000736C5F636C6F636B2E683A363337203AFB
:1031C00020282A28766F6C6174696C652075696E99
:1031D0007433325F74202A296E616D6529202620A0
:1031E0005043435F434C4B4346475F50525F4D4112
:1031F000534B00002E2E2F647269766572732F6612
:10320000736C5F636C6F636B2E683A363439203AA7
:1032100020282A28766F6C6174696C652075696E48
:103220007433325F74202A296E616D65292026204F
:103230005043435F434C4B4346475F50525F4D41C1
:10324000534B00002E2E2F647269766572732F66C1
:10325000736C5F65646D612E633A3638203A20697D
:103260006E7374616E6365203C2041525241595F18
:1032700053495A4528735F65646D61426173657394
:10328000290000002E2E2F647269766572732F66F6
:10329000736C5F65646D612E633A3832203A206347
:1032A00068616E6E656C203C2046534C5F4645411C
:1032B000545552455F45444D415F4D4F44554C4533
:1032C0005F4348414E4E454C000000002E2E2F64B7
:1032D0007269766572732F66736C5F65646D612EBB
:1032E000633A3833203A2074636420213D204E55E0
:1032F0004C4C00002E2E2F647269766572732F6617
:10330000736C5F65646D612E633A3834203A20280F
:103310002875696E7433325F7429746364202620C3
:10332000307831465529203D3D2030002E2E2F6427
:103330007269766572732F66736C5F65646D612E5A
:10334000633A313134203A20636F6E666967202119
:103350003D204E554C4C00002E2E2F647269766530
:1033600072732F66736C5F65646D612E633A3136DC
:1033700036203A20636F6E66696720213D204E55E6
:103380004C4C00002E2E2F647269766572732F6686
:10339000736C5F65646D612E633A313930203A2079
:1033A0006368616E6E656C203C2046534C5F4645F9
:1033B00041545552455F45444D415F4D4F44554C36
:1033C000455F4348414E4E454C0000002E2E2F6471
:1033D0007269766572732F66736C5F65646D612EBA
:1033E000633A323232203A206368616E6E656C2037
:1033F0003C2046534C5F464541545552455F454439
:103400004D415F4D4F44554C455F4348414E4E45FD
:103410004C0000002E2E2F647269766572732F6641
:10342000736C5F65646D612E633A323233203A20EB
:10343000636F6E66696720213D204E554C4C00003D
:103440002E2E2F647269766572732F66736C5F65BA
:10345000646D612E633A323234203A20282875692F
:103460006E7433325F74296E6578745463642026F9
:1034700020307831465529203D3D203000000000A5
:103480002E2E2F647269766572732F66736C5F657A
:10349000646D612E633A323431203A206368616E84
:1034A0006E656C203C2046534C5F46454154555256
:1034B000455F45444D415F4D4F44554C455F434842
:1034C000414E4E454C0000002E2E2F6472697665E9
:1034D00072732F66736C5F65646D612E633A32346C
:1034E00032203A20636F6E66696720213D204E5579
:1034F0004C4C00002E2E2F647269766572732F6615
:10350000736C5F65646D612E633A323732203A2006
:103510006368616E6E656C203C2046534C5F464587
:1035200041545552455F45444D415F4D4F44554CC4
:10353000455F4348414E4E454C0000002E2E2F64FF
:103540007269766572732F66736C5F65646D612E48
:10355000633A323733203A206C696E6B6564436896
:10356000616E6E656C203C2046534C5F464541546D
:103570005552455F45444D415F4D4F44554C455F65
:103580004348414E4E454C002E2E2F64726976659D
:1035900072732F66736C5F65646D612E633A3239A6
:1035A00034203A206368616E6E656C203C2046537F
:1035B0004C5F464541545552455F45444D415F4D32
:1035C0004F44554C455F4348414E4E454C0000002A
:1035D0002E2E2F647269766572732F66736C5F6529
:1035E000646D612E633A333133203A206368616E33
:1035F0006E656C203C2046534C5F46454154555205
:10360000455F45444D415F4D4F44554C455F4348F0
:10361000414E4E454C0000002E2E2F647269766597
:1036200072732F66736C5F65646D612E633A33331A
:1036300031203A206368616E6E656C203C204653F1
:103640004C5F464541545552455F45444D415F4DA1
:103650004F44554C455F4348414E4E454C00000099
:103660002E2E2F647269766572732F66736C5F6598
:10367000646D612E633A333632203A206368616E9E
:103680006E656C203C2046534C5F46454154555274
:10369000455F45444D415F4D4F44554C455F434860
:1036A000414E4E454C0000002E2E2F647269766507
:1036B00072732F66736C5F65646D612E633A333984
:1036C00033203A2074636420213D204E554C4C0039
:1036D0002E2E2F647269766572732F66736C5F6528
:1036E000646D612E633A333934203A202828756995
:1036F0006E7433325F74297463642026203078310D
:10370000465529203D3D2030000000002E2E2F641C
:103710007269766572732F66736C5F65646D612E76
:10372000633A343430203A2074636420213D204EC3
:10373000554C4C002E2E2F647269766572732F667D
:10374000736C5F65646D612E633A343431203A20C6
:10375000282875696E7433325F7429746364202677
:1037600020307831465529203D3D203000000000B2
:103770002E2E2F647269766572732F66736C5F6587
:10378000646D612E633A343432203A20636F6E6682
:10379000696720213D204E554C4C00002E2E2F6491
:1037A0007269766572732F66736C5F65646D612EE6
:1037B000633A343433203A20282875696E743332E2
:1037C0005F74296E657874546364202620307831E4
:1037D000465529203D3D2030000000002E2E2F644C
:1037E0007269766572732F66736C5F65646D612EA6
:1037F000633A343839203A2074636420213D204EE6
:10380000554C4C002E2E2F647269766572732F66AC
:10381000736C5F65646D612E633A343930203A20F1
:10382000282875696E7433325F74297463642026A6
:1038300020307831465529203D3D203000000000E1
:103840002E2E2F647269766572732F66736C5F65B6
:10385000646D612E633A353139203A2074636420F7
:10386000213D204E554C4C002E2E2F6472697665FA
:1038700072732F66736C5F65646D612E633A3532C7
:1038800030203A20282875696E7433325F742974A9
:103890006364202620307831465529203D3D203074
:1038A000000000002E2E2F647269766572732F66F9
:1038B000736C5F65646D612E633A353231203A2056
:1038C0006C696E6B65644368616E6E656C203C204C
:1038D00046534C5F464541545552455F45444D4122
:1038E0005F4D4F44554C455F4348414E4E454C005B
:1038F0002E2E2F647269766572732F66736C5F6506
:10390000646D612E633A353639203A207463642041
:10391000213D204E554C4C002E2E2F647269766549
:1039200072732F66736C5F65646D612E633A353711
:1039300030203A20282875696E7433325F742974F8
:103940006364202620307831465529203D3D2030C3
:10395000000000002E2E2F647269766572732F6648
:10396000736C5F65646D612E633A353837203A2099
:1039700074636420213D204E554C4C002E2E2F6444
:103980007269766572732F66736C5F65646D612E04
:10399000633A363131203A2074636420213D204E51
:1039A000554C4C002E2E2F647269766572732F660B
:1039B000736C5F65646D612E633A363439203A204A
:1039C0006368616E6E656C203C2046534C5F4645D3
:1039D00041545552455F45444D415F4D4F44554C10
:1039E000455F4348414E4E454C0000002E2E2F644B
:1039F0007269766572732F66736C5F65646D612E94
:103A0000633A363835203A206368616E6E656C2003
:103A10003C2046534C5F464541545552455F454412
:103A20004D415F4D4F44554C455F4348414E4E45D7
:103A30004C0000002E2E2F647269766572732F661B
:103A4000736C5F65646D612E633A373039203A20BC
:103A50006368616E6E656C203C2046534C5F464542
:103A600041545552455F45444D415F4D4F44554C7F
:103A7000455F4348414E4E454C0000002E2E2F64BA
:103A80007269766572732F66736C5F65646D612E03
:103A9000633A373538203A2068616E646C652021BE
:103AA0003D204E554C4C00002E2E2F6472697665D9
:103AB00072732F66736C5F65646D612E633A373580
:103AC00039203A206368616E6E656C203C20465355
:103AD0004C5F464541545552455F45444D415F4D0D
:103AE0004F44554C455F4348414E4E454C00000005
:103AF0002E2E2F647269766572732F66736C5F6504
:103B0000646D612E633A383133203A2068616E6407
:103B10006C6520213D204E554C4C00002E2E2F640C
:103B20007269766572732F66736C5F65646D612E62
:103B3000633A383134203A20282875696E7433325C
:103B40005F7429746364506F6F6C20262030783165
:103B5000465529203D3D2030000000002E2E2F64C8
:103B60007269766572732F66736C5F65646D612E22
:103B7000633A383337203A2068616E646C652021DF
:103B80003D204E554C4C00002E2E2F6472697665F8
:103B900072732F66736C5F65646D612E633A38369D
:103BA00039203A20636F6E66696720213D204E55AB
:103BB0004C4C00002E2E2F647269766572732F664E
:103BC000736C5F65646D612E633A383730203A203C
:103BD0007372634164647220213D204E554C4C0049
:103BE0002E2E2F647269766572732F66736C5F6513
:103BF000646D612E633A383731203A2064657374FE
:103C00004164647220213D204E554C4C0000000060
:103C10002E2E2F647269766572732F66736C5F65E2
:103C2000646D612E633A383732203A20287372630C
:103C30005769647468203D3D20315529207C7C20E3
:103C4000287372635769647468203D3D203255299A
:103C5000207C7C20287372635769647468203D3D22
:103C600020345529207C7C20287372635769647442
:103C700068203D3D2031365529207C7C20287372F8
:103C8000635769647468203D3D2033325529000034
:103C90002E2E2F647269766572732F66736C5F6562
:103CA000646D612E633A383733203A202864657397
:103CB000745769647468203D3D20315529207C7C0F
:103CC0002028646573745769647468203D3D203210
:103CD0005529207C7C202864657374576964746856
:103CE000203D3D20345529207C7C20286465737458
:103CF0005769647468203D3D2031365529207C7C0D
:103D00002028646573745769647468203D3D2033CE
:103D1000325529002E2E2F647269766572732F66D4
:103D2000736C5F65646D612E633A383734203A20D6
:103D30007472616E736665724279746573202520B2
:103D400062797465734561636852657175657374F2
:103D5000203D3D20300000002E2E2F6472697665D4
:103D600072732F66736C5F65646D612E633A3935CB
:103D700037203A2068616E646C6520213D204E55E5
:103D80004C4C00002E2E2F647269766572732F667C
:103D9000736C5F65646D612E633A393538203A2063
:103DA000636F6E66696720213D204E554C4C0000C4
:103DB0002E2E2F647269766572732F66736C5F6541
:103DC000646D612E633A31313034203A2068616E7F
:103DD000646C6520213D204E554C4C002E2E2F64E6
:103DE0007269766572732F66736C5F65646D612EA0
:103DF000633A31313439203A2068616E646C652051
:103E0000213D204E554C4C002E2E2F647269766554
:103E100072732F66736C5F65646D612E633A313225
:103E20003134203A2068616E646C6520213D204E5B
:103E3000554C4C002E2E2F647269766572732F6676
:103E4000736C5F6770696F2E633A3637203A20696A
:103E50006E7374616E6365203C2041525241595F1C
:103E600053495A4528735F6770696F426173657380
:103E7000290000002E2E2F647269766572732F66FA
:103E8000736C5F6770696F2E633A313030203A206F
:103E9000636F6E66696700FF2E2E2F647269766508
:103EA00072732F66736C5F636C6F636B2E683A3648
:103EB0003337203A20282A28766F6C6174696C6544
:103EC0002075696E7433325F74202A296E616D65C6
:103ED000292026205043435F434C4B4346475F50C5
:103EE000525F4D41534B00002E2E2F647269766550
:103EF00072732F66736C5F636C6F636B2E683A36F8
:103F00003439203A20282A28766F6C6174696C65F0
:103F10002075696E7433325F74202A296E616D6575
:103F2000292026205043435F434C4B4346475F5074
:103F3000525F4D41534B00002E2E2F6472697665FF
:103F400072732F66736C5F6C707370692E633A3195
:103F50003538203A20696E7374616E6365203C20A9
:103F600041525241595F53495A4528735F6C7073EF
:103F70007069426173657329000000002E2E2F6462
:103F80007269766572732F66736C5F6C707370699B
:103F90002E633A313838203A206D6173746572436C
:103FA0006F6E6669670000002E2E2F647269766559
:103FB00072732F66736C5F6C707370692E633A3224
:103FC0003530203A206D6173746572436F6E666997
:103FD000670000002E2E2F647269766572732F665B
:103FE000736C5F6C707370692E633A323830203AAC
:103FF00020736C617665436F6E6669670000000030
:104000002E2E2F647269766572732F66736C5F6CE7
:10401000707370692E633A333237203A20736C61C3
:104020007665436F6E666967000000002E2E2F6470
:104030007269766572732F66736C5F6C70737069EA
:104040002E633A343234203A2074637250726573AE
:1040500063616C6556616C75650000002E2E2F64DF
:104060007269766572732F66736C5F6C70737069BA
:104070002E633A353333203A2066616C7365000055
:104080002E2E2F647269766572732F66736C5F6C67
:10409000707370692E633A363930203A2068616E49
:1040A000646C65002E2E2F647269766572732F66BC
:1040B000736C5F6C707370692E633A373134203AD9
:1040C000207472616E736665720000002E2E2F647C
:1040D0007269766572732F66736C5F6C707370694A
:1040E0002E633A373830203A207472616E736665F9
:1040F000720000002E2E2F647269766572732F662F
:10410000736C5F6C707370692E633A393632203A83
:104110002068616E646C65002E2E2F64726976656E
:1041200072732F66736C5F6C707370692E633A39AB
:104130003633203A207472616E7366657200000037
:104140002E2E2F647269766572732F66736C5F6CA6
:10415000707370692E633A31313131203A206861D1
:104160006E646C65000000002E2E2F647269766507
:1041700072732F66736C5F6C707370692E633A3163
:10418000313731203A2068616E646C6500000000B0
:104190002E2E2F647269766572732F66736C5F6C56
:1041A000707370692E633A31313936203A20686174
:1041B0006E646C65000000002E2E2F6472697665B7
:1041C00072732F66736C5F6C707370692E633A3113
:1041D000323336203A2068616E646C65000000005E
:1041E0002E2E2F647269766572732F66736C5F6C06
:1041F000707370692E633A31323538203A20686125
:104200006E646C65000000002E2E2F647269766566
:1042100072732F66736C5F6C707370692E633A31C2
:10422000333730203A2068616E646C65000000000E
:104230002E2E2F647269766572732F66736C5F6CB5
:10424000707370692E633A31343034203A206861DB
:104250006E646C65000000002E2E2F647269766516
:1042600072732F66736C5F6C707370692E633A3172
:10427000343035203A207472616E736665720000C6
:104280002E2E2F647269766572732F66736C5F6C65
:10429000707370692E633A31353635203A20686183
:1042A0006E646C65000000002E2E2F6472697665C6
:1042B00072732F66736C5F6C707370692E633A3122
:1042C000353934203A2068616E646C650000000066
:1042D0002E2E2F647269766572732F66736C5F6C15
:1042E000707370692E633A31363330203A2068613A
:1042F0006E646C65000000002E2E2F647269766576
:1043000072732F66736C5F6C707370692E633A31D1
:10431000363730203A2068616E646C65000000001A
:104320002E2E2F647269766572732F66736C5F6CC4
:10433000707370692E633A31363932203A206861E1
:104340006E646C65000000002E2E2F647269766525
:1043500072732F66736C5F6C707370692E633A3181
:10436000383133203A2074784461746100000000D1
:104370002E2E2F647269766572732F66736C5F6C74
:10438000707370692E633A31383839203A2066618B
:104390006C7365002E2E2F647269766572732F66BA
:1043A000736C5F6C707370692E633A3138393720E3
:1043B0003A20727844617461000000002E2E2F6450
:1043C0007269766572732F66736C5F6C7073706957
:1043D0002E633A31393730203A2066616C736500BC
:1043E0002E2E2F647269766572732F66736C5F6C04
:1043F000707370692E633A31393935203A20735F12
:104400006C7073706948616E646C655B305D000050
:104410002E2E2F647269766572732F66736C5F6CD3
:10442000707370692E633A32303033203A20735FF4
:104430006C7073706948616E646C655B315D00FF20
:104440002E2E2F647269766572732F66736C5F63AC
:104450006C6F636B2E683A363337203A20282A284F
:10446000766F6C6174696C652075696E7433325F48
:1044700074202A296E616D65292026205043435FF0
:10448000434C4B4346475F50525F4D41534B0000F6
:104490002E2E2F647269766572732F66736C5F635C
:1044A0006C6F636B2E683A363439203A20282A28FC
:1044B000766F6C6174696C652075696E7433325FF8
:1044C00074202A296E616D65292026205043435FA0
:1044D000434C4B4346475F50525F4D41534B0000A6
:1044E0002E2E2F647269766572732F66736C5F6C03
:1044F00070756172742E633A313232203A20696EDF
:104500007374616E6365203C2041525241595F5380
:10451000495A4528735F6C707561727442617365A6
:10452000732900002E2E2F647269766572732F66D0
:10453000736C5F6C70756172742E633A3133352021
:104540003A2068616E646C65000000002E2E2F64B6
:104550007269766572732F66736C5F6C70756172C9
:10456000742E633A313533203A2068616E646C658D
:10457000000000002E2E2F647269766572732F661C
:10458000736C5F6C70756172742E633A31373020D2
:104590003A206461746100002E2E2F647269766582
:1045A00072732F66736C5F6C70756172742E633AF0
:1045B000313834203A206461746100002E2E2F645B
:1045C0007269766572732F66736C5F6C7075617259
:1045D000742E633A323338203A20636F6E6669670F
:1045E000000000002E2E2F647269766572732F66AC
:1045F000736C5F6C70756172742E633A323339205C
:104600003A20636F6E6669672D3E62617564526120
:1046100074655F42707300002E2E2F647269766598
:1046200072732F66736C5F6C70756172742E633A6F
:10463000323431203A2046534C5F4645415455525E
:10464000455F4C50554152545F4649464F5F534970
:104650005A456E286261736529203E3D20636F6E66
:104660006669672D3E74784669666F576174657236
:104670006D61726B000000002E2E2F6472697665EA
:1046800072732F66736C5F6C70756172742E633A0F
:10469000323432203A2046534C5F464541545552FD
:1046A000455F4C50554152545F4649464F5F534910
:1046B0005A456E286261736529203E3D20636F6E06
:1046C0006669672D3E72784669666F5761746572D8
:1046D0006D61726B000000002E2E2F64726976658A
:1046E00072732F66736C5F6C70756172742E633AAF
:1046F000353138203A20636F6E666967000000002C
:104700002E2E2F647269766572732F66736C5F6CE0
:1047100070756172742E633A353633203A206261C7
:104720007564526174655F42707300002E2E2F64B1
:104730007269766572732F66736C5F6C70756172E7
:10474000742E633A383331203A206461746100007A
:104750002E2E2F647269766572732F66736C5F6C90
:1047600070756172742E633A383631203A20646174
:10477000746100002E2E2F647269766572732F6645
:10478000736C5F6C70756172742E633A39343420C7
:104790003A2068616E646C65000000002E2E2F6464
:1047A0007269766572732F66736C5F6C7075617277
:1047B000742E633A31303038203A2068616E646C70
:1047C000650000002E2E2F647269766572732F6665
:1047D000736C5F6C70756172742E633A313030396E
:1047E000203A2072696E6742756666657200000045
:1047F0002E2E2F647269766572732F66736C5F6CF0
:1048000070756172742E633A31303331203A20680A
:10481000616E646C650000002E2E2F6472697665EF
:1048200072732F66736C5F6C70756172742E633A6D
:1048300031303635203A2068616E646C65000000C6
:104840002E2E2F647269766572732F66736C5F6C9F
:1048500070756172742E633A31303636203A2078A2
:10486000666572002E2E2F647269766572732F66EC
:10487000736C5F6C70756172742E633A31303637C9
:10488000203A20786665722D3E64617461000000F4
:104890002E2E2F647269766572732F66736C5F6C4F
:1048A00070756172742E633A31303638203A207850
:1048B0006665722D3E6461746153697A650000001B
:1048C0002E2E2F647269766572732F66736C5F6C1F
:1048D00070756172742E633A31313034203A206839
:1048E000616E646C650000002E2E2F64726976651F
:1048F00072732F66736C5F6C70756172742E633A9D
:1049000031313237203A2068616E646C65000000F6
:104910002E2E2F647269766572732F66736C5F6CCE
:1049200070756172742E633A31313238203A2063E7
:104930006F756E74000000002E2E2F64726976650C
:1049400072732F66736C5F6C70756172742E633A4C
:1049500031313731203A2068616E646C65000000A7
:104960002E2E2F647269766572732F66736C5F6C7E
:1049700070756172742E633A31313732203A207883
:10498000666572002E2E2F647269766572732F66CB
:10499000736C5F6C70756172742E633A31313733AA
:1049A000203A20786665722D3E64617461000000D3
:1049B0002E2E2F647269766572732F66736C5F6C2E
:1049C00070756172742E633A31313734203A207831
:1049D0006665722D3E6461746153697A65000000FA
:1049E0002E2E2F647269766572732F66736C5F6CFE
:1049F00070756172742E633A31323933203A20680F
:104A0000616E646C650000002E2E2F6472697665FD
:104A100072732F66736C5F6C70756172742E633A7B
:104A200031333231203A2068616E646C65000000D9
:104A30002E2E2F647269766572732F66736C5F6CAD
:104A400070756172742E633A31333232203A2063CA
:104A50006F756E74000000002E2E2F6472697665EB
:104A600072732F66736C5F6C70756172742E633A2B
:104A700031333434203A2068616E646C6500FFFF86
:104A800000A0064000B0064000C00640A851064005
:104A9000AC510640B051064000A0064000B00640B0
:104AA00000C006402E2E2F636F6D706F6E656E74A2
:104AB0002F756172742F6C70756172745F616461BF
:104AC000707465722E633A323235203A2068616E16
:104AD000646C65002E2E2F636F6D706F6E656E7443
:104AE0002F756172742F6C70756172745F6164618F
:104AF000707465722E633A323236203A20636F6EDC
:104B0000666967002E2E2F636F6D706F6E656E7411
:104B10002F756172742F6C70756172745F6164615E
:104B2000707465722E633A323237203A20636F6EAA
:104B30006669672D3E696E7374616E6365203C2003
:104B40002873697A656F6628735F4C70756172743B
:104B5000416461707465724261736529202F20730E
:104B6000697A656F66284C50554152545F5479708C
:104B700065202A29290000002E2E2F636F6D706F8B
:104B80006E656E742F756172742F6C7075617274BE
:104B90005F616461707465722E633A323238203A14
:104BA00020735F4C707561727441646170746572DA
:104BB000426173655B636F6E6669672D3E696E73F4
:104BC00074616E63655D00002E2E2F636F6D706FD4
:104BD0006E656E742F756172742F6C70756172746E
:104BE0005F616461707465722E633A323937203ABE
:104BF0002068616E646C65002E2E2F636F6D706F80
:104C00006E656E742F756172742F6C70756172743D
:104C10005F616461707465722E633A333138203A93
:104C20002068616E646C65002E2E2F636F6D706F4F
:104C30006E656E742F756172742F6C70756172740D
:104C40005F616461707465722E633A333139203A62
:104C500020646174610000002E2E2F636F6D706FF1
:104C60006E656E742F756172742F6C7075617274DD
:104C70005F616461707465722E633A333230203A3A
:104C8000206C656E677468002E2E2F636F6D706FD9
:104C90006E656E742F756172742F6C7075617274AD
:104CA0005F616461707465722E633A333339203A00
:104CB0002068616E646C65002E2E2F636F6D706FBF
:104CC0006E656E742F756172742F6C70756172747D
:104CD0005F616461707465722E633A333430203AD8
:104CE00020646174610000002E2E2F636F6D706F61
:104CF0006E656E742F756172742F6C70756172744D
:104D00005F616461707465722E633A333431203AA6
:104D1000206C656E677468002E2E2F636F6D706F48
:104D20006E656E742F73657269616C5F6D616E6123
:104D30006765722F73657269616C5F6D616E616723
:104D400065722E633A373433203A2077726974657E
:104D500048616E646C6500002E2E2F636F6D706F5E
:104D60006E656E742F73657269616C5F6D616E61E3
:104D70006765722F73657269616C5F6D616E6167E3
:104D800065722E633A373434203A20627566666560
:104D9000720000002E2E2F636F6D706F6E656E7443
:104DA0002F73657269616C5F6D616E616765722FEB
:104DB00073657269616C5F6D616E616765722E63A8
:104DC0003A373435203A206C656E6774680000000D
:104DD0002E2E2F636F6D706F6E656E742F736572FC
:104DE00069616C5F6D616E616765722F7365726971
:104DF000616C5F6D616E616765722E633A37353045
:104E0000203A2068616E646C650000002E2E2F63CE
:104E10006F6D706F6E656E742F73657269616C5F14
:104E20006D616E616765722F73657269616C5F6D2C
:104E3000616E616765722E633A373630203A2072B0
:104E400065616448616E646C650000002E2E2F63FE
:104E50006F6D706F6E656E742F73657269616C5FD4
:104E60006D616E616765722F73657269616C5F6DEC
:104E7000616E616765722E633A373631203A20627F
:104E800075666665720000002E2E2F636F6D706F61
:104E90006E656E742F73657269616C5F6D616E61B2
:104EA0006765722F73657269616C5F6D616E6167B2
:104EB00065722E633A373632203A206C656E67741D
:104EC000680000002E2E2F636F6D706F6E656E741C
:104ED0002F73657269616C5F6D616E616765722FBA
:104EE00073657269616C5F6D616E616765722E6377
:104EF0003A373637203A2068616E646C65000000EE
:104F00002E2E2F636F6D706F6E656E742F736572CA
:104F100069616C5F6D616E616765722F736572693F
:104F2000616C5F6D616E616765722E633A37373809
:104F3000203A20636F6E6669670000002E2E2F6393
:104F40006F6D706F6E656E742F73657269616C5FE3
:104F50006D616E616765722F73657269616C5F6DFB
:104F6000616E616765722E633A373833203A207379
:104F7000657269616C48616E646C65002E2E2F63EA
:104F80006F6D706F6E656E742F73657269616C5FA3
:104F90006D616E616765722F73657269616C5F6DBB
:104FA000616E616765722E633A383833203A207338
:104FB000657269616C48616E646C65002E2E2F63AA
:104FC0006F6D706F6E656E742F73657269616C5F63
:104FD0006D616E616765722F73657269616C5F6D7B
:104FE000616E616765722E633A393334203A2073FB
:104FF000657269616C48616E646C65002E2E2F636A
:105000006F6D706F6E656E742F73657269616C5F22
:105010006D616E616765722F73657269616C5F6D3A
:10502000616E616765722E633A393335203A2077B5
:105030007269746548616E646C6500002E2E2F6382
:105040006F6D706F6E656E742F73657269616C5FE2
:105050006D616E616765722F73657269616C5F6DFA
:10506000616E616765722E633A393630203A207777
:105070007269746548616E646C6500002E2E2F6342
:105080006F6D706F6E656E742F73657269616C5FA2
:105090006D616E616765722F73657269616C5F6DBA
:1050A000616E616765722E633A393635203A206841
:1050B000616E646C650000002E2E2F636F6D706F43
:1050C0006E656E742F73657269616C5F6D616E6180
:1050D0006765722F73657269616C5F6D616E616780
:1050E00065722E633A393835203A207365726961EA
:1050F0006C48616E646C65002E2E2F636F6D706F4F
:105100006E656E742F73657269616C5F6D616E613F
:105110006765722F73657269616C5F6D616E61673F
:1051200065722E633A393836203A207265616448D8
:10513000616E646C650000002E2E2F636F6D706FC2
:105140006E656E742F73657269616C5F6D616E61FF
:105150006765722F73657269616C5F6D616E6167FF
:1051600065722E633A31303135203A2072656164C0
:1051700048616E646C6500002E2E2F636F6D706F3A
:105180006E656E742F73657269616C5F6D616E61BF
:105190006765722F73657269616C5F6D616E6167BF
:1051A00065722E633A31303230203A2068616E6485
:1051B0006C6500002E2E2F636F6D706F6E656E74C0
:1051C0002F73657269616C5F6D616E616765722FC7
:1051D00073657269616C5F6D616E616765722E6384
:1051E0003A31323331203A2073657269616C48611B
:1051F0006E646C65000000002E2E2F636F6D706F63
:105200006E656E742F73657269616C5F6D616E613E
:105210006765722F73657269616C5F6D616E61673E
:1052200065722E633A31323338203A2073657269E1
:10523000616C48616E646C6500FFFFFF2E2E2F636A
:105240006F6D706F6E656E742F73657269616C5FE0
:105250006D616E616765722F73657269616C5F70F5
:105260006F72745F756172742E633A313338203A0D
:105270002073657269616C436F6E66696700000038
:105280002E2E2F636F6D706F6E656E742F73657247
:1052900069616C5F6D616E616765722F73657269BC
:1052A000616C5F706F72745F756172742E633A31F6
:1052B0003339203A2073657269616C48616E646CA1
:1052C000650000002E2E2F636F6D706F6E656E741B
:1052D0002F73657269616C5F6D616E616765722FB6
:1052E00073657269616C5F706F72745F75617274FF
:1052F0002E633A323032203A2073657269616C480D
:10530000616E646C650000002E2E2F636F6D706FF0
:105310006E656E742F73657269616C5F6D616E612D
:105320006765722F73657269616C5F706F72745F0D
:10533000756172742E633A323639203A2073657281
:1053400069616C48616E646C650000002E2E2F63ED
:105350006F6D706F6E656E742F73657269616C5FCF
:105360006D616E616765722F73657269616C5F70E4
:105370006F72745F756172742E633A323730203AFF
:1053800020627566666572002E2E2F636F6D706FDA
:105390006E656E742F73657269616C5F6D616E61AD
:1053A0006765722F73657269616C5F706F72745F8D
:1053B000756172742E633A323731203A206C656E13
:1053C000677468002E2E2F636F6D706F6E656E743C
:1053D0002F73657269616C5F6D616E616765722FB5
:1053E00073657269616C5F706F72745F75617274FE
:1053F0002E633A323833203A2073657269616C4803
:10540000616E646C650000002E2E2F636F6D706FEF
:105410006E656E742F73657269616C5F6D616E612C
:105420006765722F73657269616C5F706F72745F0C
:10543000756172742E633A323834203A2062756690
:10544000666572002E2E2F636F6D706F6E656E74C1
:105450002F73657269616C5F6D616E616765722F34
:1054600073657269616C5F706F72745F756172747D
:105470002E633A323835203A206C656E67746800C6
:105480002E2E2F647269766572732F66736C5F635C
:105490006C6F636B2E683A363832203A207265673B
:1054A0002026205043435F434C4B4346475F5052B6
:1054B0005F4D41534B0000002E2E2F6472697665BC
:1054C00072732F66736C5F636C6F636B2E683A3612
:1054D0003833203A20212872656720262050434324
:1054E0005F434C4B4346475F494E5553455F4D41E3
:1054F000534B29002E2E2F647269766572732F66C6
:10550000736C5F636C6F636B2E683A363832203A87
:10551000207265672026205043435F434C4B43462F
:10552000475F50525F4D41534B0000002E2E2F64B9
:105530007269766572732F66736C5F636C6F636BF1
:105540002E683A363833203A2021287265672026A3
:10555000205043435F434C4B4346475F494E5553AE
:10556000455F4D41534B29002E2E2F64726976659D
:1055700072732F66736C5F636C6F636B2E683A3760
:105580003931203A20636F6E666967002E2E2F64D2
:105590007269766572732F66736C5F636C6F636B91
:1055A0002E683A383139203A20636F6E6669670099
:1055B00001000000000201000100000305000000DE
:1055C00004040100010000000003000000000000CE
:1055D00001000000000000000004010200000000C3
:1055E0002E2E2F647269766572732F66736C5F63FB
:1055F0006C6F636B2E683A363337203A20282A289E
:10560000766F6C6174696C652075696E7433325F96
:1056100074202A296E616D65292026205043435F3E
:10562000434C4B4346475F50525F4D41534B00FF45
:10563000030000002A2A2A206173736572742066B1
:1056400061696C6564203A20002A2A2A205F43732E
:1056500079735F616C6C6F63206661696C65640A65
:085660000072007700FFFFFF5C
:08566800006CDC02FFFFFFFFF4
:04000003000001B543
:00000001FF
